:020000040800F2
:1000000000280020ED1E0008111A0008171A000829
:100010001D1A0008231A0008291A00080000000011
:100020000000000000000000000000002F1A00087F
:100030003B1A000800000000471A0008531A000885
:10004000351F0008351F0008351F0008351F000840
:10005000351F0008351F0008351F0008351F000830
:10006000351F0008351F0008351F0008351F000820
:10007000351F0008351F0008351F0008351F000810
:10008000351F0008351F0008351F0008351F000800
:10009000351F0008351F0008351F0008351F0008F0
:1000A000351F0008351F0008351F0008351F0008E0
:1000B000611A0008351F000800000000351F000805
:1000C000351F00080000000000000000351F000878
:1000D00000000000351F0008351F00080000000068
:1000E000351F0008351F0008351F000800000000FC
:1000F0000000000000000000000000000000000000
:0C01000000000000000000005FF808F1A3
:10010C0010B5054C237833B9044B13B10448AFF345
:10011C0000800123237010BD2C0000200000000083
:10012C008C35000808B5034B1BB103490348AFF3EA
:10013C00008008BD00000000300000208C35000855
:10014C0080B500AF1D4B1A681D4B1B689A4215DD1C
:10015C001B4B1A681B4B1B689A420FDD174B1A6816
:10016C00184B1B68D21A164B1B689A4206D10122F7
:10017C004FF40041144802F0DAF91DE00F4B1B68F4
:10018C00042B0ADD0F4B02221A600C4B1A680D4B24
:10019C001B68D31A0A4A136008E0084B05221A6040
:1001AC00084B02221A60064B03221A6000224FF4FD
:1001BC000041054802F0BBF980BD00BF0C000020D7
:1001CC0014000020100000200008014080B500AF92
:1001DC00974B1A78974B1A70964B1B780C2B00F296
:1001EC00A38501A252F823F0290200086502000839
:1001FC00FF050008A50900083D0300086305000879
:10020C006504000801070008F7070008F508000856
:10021C00950A0008830B00088B0C0008FFF790FF71
:10022C00854B1B68854A12681146184601F036FD4D
:10023C00002000F027FE0346002B00F05C857C4B71
:10024C0001221A707E4B1B687E4A1360022101202A
:10025C0001F0BCF900F04FBD774B1B68002B07D0A9
:10026C000121794802F07BF90821774802F077F9EF
:10027C00012000F007FE0346002B0FD06C4B04222C
:10028C001A70704B1B6801336E4A13606D4B1B6800
:10029C00632B18DD6B4B01221A6014E0032000F075
:1002AC00F1FD0346002B0ED0614B06221A70654BF4
:1002BC001B68013B634A1360624B1B68002B02DC1A
:1002CC00604B63221A60022000F0DCFD0346002B19
:1002DC0006D0574B05221A705A4B1B68584A1360AC
:1002EC00554B1B68002B05D0564B1B68194600203C
:1002FC0001F0B4F9514B1B68002B05D0514B1B6816
:10030C001946012001F0AAF9002000F0BBFD0346BC
:10031C00002B00F0F284464B02221A704B4B1B68E8
:10032C004B4A13600321012001F050F900F0E5BCA9
:10033C00414B1B68002B07D00121434802F00FF9F9
:10034C000821414802F00BF9012000F09BFD034607
:10035C00002B02D1364B01221A70012000F0ACFDAB
:10036C000346002B1DD03B4B1B68012B2BD1354B6F
:10037C001B680133334A1360324B1B68632B02DD5D
:10038C00304B01221A60022000F07CFD0346002B4A
:10039C0019D0274B05221A702A4B1B68284A136068
:1003AC0011E0012000F06EFD0346002B0BD0254B15
:1003BC001B680133234A1360224B1B68632B02DD3D
:1003CC00204B01221A601C4B1B68002B05D01D4BC7
:1003DC001B681946002001F041F9184B1B68002BD3
:1003EC0005D0184B1B681946012001F037F9022083
:1003FC0000F048FD0346002B06D00D4B05221A7069
:10040C00104B1B680E4A1360002000F03BFD0346A6
:10041C00002B00F07484064B02221A700B4B1B68E5
:10042C000B4A13600321012001F0D0F800F067BCE7
:10043C0049000020480000206400002068000020D3
:10044C000C000020000000200008014010000020DB
:10045C00040000206C0000209B4B1B68002B07D075
:10046C0001219A4802F07BF80821984802F077F8AD
:10047C00032000F007FD0346002B02D1944B012210
:10048C001A70032000F018FD0346002B1DD0914B71
:10049C001B68012B2BD1904B1B68013B8E4A1360C0
:1004AC008D4B1B68002B02DC8B4B63221A600220E5
:1004BC0000F0E8FC0346002B19D0854B05221A707E
:1004CC00854B1B68854A136011E0032000F0DAFCB1
:1004DC000346002B0BD0804B1B68013B7E4A1360FC
:1004EC007D4B1B68002B02DC7B4B63221A60764B26
:1004FC001B68002B05D0784B1B681946002001F0B7
:10050C00ADF8774B1B68002B05D0734B1B68194655
:10051C00012001F0A3F8022000F0B4FC0346002BEC
:10052C0006D06B4B05221A706B4B1B686B4A136021
:10053C00002000F0A7FC0346002B00F0E283644B84
:10054C0002221A70674B1B68674A13600321012053
:10055C0001F03CF8D5E35C4B1B68002B07D0012164
:10056C005A4801F0FCFF0821584801F0F8FF02201E
:10057C0000F088FC0346002B02D1554B01221A7067
:10058C00012000F07FFC0346002B02D0504B0422CC
:10059C001A70032000F076FC0346002B02D04C4B63
:1005AC0006221A70484B1B68002B05D04A4B1B685F
:1005BC001946002001F052F8494B1B68002B05D05E
:1005CC00454B1B681946012001F048F8002000F04B
:1005DC0059FC0346002B00F096833D4B02221A7007
:1005EC00404B1B68404A13600321012000F0EEFFD2
:1005FC0089E3354B1B68002B07D00221334801F0EF
:10060C00AEFF1021314801F0AAFF012000F03AFCA6
:10061C000346002B0FD02E4B07221A70324B1B684F
:10062C000133314A1360304B1B68632B18DD2E4BA2
:10063C0001221A6014E0032000F024FC0346002B76
:10064C000ED0234B08221A70274B1B68013B264AFD
:10065C001360254B1B68002B02DC234B63221A60B2
:10066C00022000F00FFC0346002B06D0184B092289
:10067C001A701D4B1B681B4A1360134B1B68002B15
:10068C0005D0194B1B681946002000F0E7FF144BEE
:10069C001B68002B05D0144B1B681946012000F079
:1006AC00DDFF002000F0EEFB0346002B00F02D8355
:1006BC00074B03221A700D4B1B680D4A1360042163
:1006CC00012000F083FF20E36400002000080140BB
:1006DC00490000206C000020000000200C000020CD
:1006EC0068000020100000200400002014000020EE
:1006FC00080000209F4B1B68002B07D002219E484E
:10070C0001F02DFF10219C4801F029FF012000F081
:10071C00B9FB0346002B02D1984B02221A70012020
:10072C0000F0CAFB0346002B1DD0954B1B68012B18
:10073C002BD1944B1B680133924A1360914B1B686D
:10074C00632B02DD8F4B01221A60022000F09AFB12
:10075C000346002B19D0894B09221A70894B1B6850
:10076C00894A136011E0012000F08CFB0346002B3A
:10077C000BD0844B1B680133824A1360814B1B687E
:10078C00632B02DD7F4B01221A607A4B1B68002B16
:10079C0005D07C4B1B681946002000F05FFF7B4B9B
:1007AC001B68002B05D0774B1B681946012000F005
:1007BC0055FF022000F066FB0346002B06D06F4B62
:1007CC0009221A706F4B1B686F4A1360002000F0EF
:1007DC0059FB0346002B00F09A82684B03221A70D7
:1007EC000421012000F0F2FE91E2624B1B68002B09
:1007FC0007D00221604801F0B2FE10215E4801F0E2
:10080C00AEFE032000F03EFB0346002B02D15B4BF7
:10081C0002221A70032000F04FFB0346002B1DD060
:10082C00574B1B68012B2BD1564B1B68013B554A70
:10083C001360544B1B68002B02DC524B63221A6072
:10084C00032000F01FFB0346002B19D04B4B092251
:10085C001A704C4B1B684C4A136011E0012000F0DD
:10086C0011FB0346002B0BD0464B1B68013B454A42
:10087C001360444B1B68002B02DC424B63221A6052
:10088C003C4B1B68002B05D03E4B1B6819460020C7
:10089C0000F0E4FE3D4B1B68002B05D0394B1B6868
:1008AC001946012000F0DAFE022000F0EBFA0346B4
:1008BC00002B06D0314B09221A70324B1B68324A7E
:1008CC001360002000F0DEFA0346002B00F02182BA
:1008DC002A4B03221A702E4B1B682E4A13600421DC
:1008EC00012000F073FE14E2224B1B68002B07D092
:1008FC000221214801F033FE10211F4801F02FFE88
:10090C00012000F0BFFA0346002B02D01B4B07223C
:10091C001A70032000F0B6FA0346002B02D0174BD6
:10092C0008221A70134B1B68002B05D0154B1B6843
:10093C001946002000F092FE144B1B68002B05D0CA
:10094C00104B1B681946012000F088FE002000F0B7
:10095C0099FA0346002B00F0DE81084B03221A7033
:10096C000B4B1B680B4A13600421012000F02EFE78
:10097C00D1E100BF640000200008014049000020C4
:10098C006C000020040000201000002068000020F3
:10099C001400002008000020934B1B68002B07D08C
:1009AC000421924801F0DBFD2021904801F0D7FD95
:1009BC00012000F067FA0346002B1BD08C4B0A2257
:1009CC001A708C4B1B6801338A4A1360894B1B6865
:1009DC00632B02DD874B01221A60022000F052FAD1
:1009EC000346002B06D0824B0C221A70814B1B68DD
:1009FC00814A1360032000F045FA0346002B17D000
:100A0C007B4B0B221A707B4B1B68013B794A1360A2
:100A1C00784B1B68002B02DC764B63221A60022099
:100A2C0000F030FA0346002B02D0714B0C221A70E6
:100A3C00022000F027FA0346002B06D06C4B0C2248
:100A4C001A706C4B1B686C4A1360674B1B68002B4D
:100A5C0005D0684B1B681946002000F0FFFD674B62
:100A6C001B68002B05D0634B1B681946012000F056
:100A7C00F5FD002000F006FA0346002B00F04D8136
:100A8C005B4B00221A7048E1574B1B68002B07D0B8
:100A9C000421564801F063FD2021544801F05FFD0C
:100AAC00012000F0EFF90346002B02D1504B03223A
:100ABC001A70012000F000FA0346002B1DD0504B99
:100ACC001B68012B2BD14B4B1B680133494A13601C
:100ADC00484B1B68632B02DD464B01221A60022037
:100AEC0000F0D0F90346002B19D0414B0C221A70A0
:100AFC00404B1B68404A136011E0012000F0C2F922
:100B0C000346002B0BD03B4B1B680133394A136057
:100B1C00384B1B68632B02DD364B01221A60324BBB
:100B2C001B68002B05D0334B1B681946002000F0C6
:100B3C0095FD324B1B68002B05D02E4B1B681946BC
:100B4C00012000F08BFD022000F09CF90346002BE5
:100B5C0006D0274B0C221A70264B1B68264A1360B2
:100B6C00002000F08FF90346002B00F0D880204BBA
:100B7C0000221A70D3E01C4B1B68002B07D00421F9
:100B8C001A4801F0ECFC2021184801F0E8FC032085
:100B9C0000F078F90346002B02D1154B03221A7092
:100BAC00032000F089F90346002B2BD0144B1B6853
:100BBC00012B39D10F4B1B68013B0E4A13600D4BB7
:100BCC001B68002B02DC0B4B63221A60022000F026
:100BDC0059F90346002B27D0054B0C221A70054BF4
:100BEC001B68054A13601FE06400002000080140E8
:100BFC00490000200800002014000020680000209C
:100C0C006C000020032000F03DF90346002B0BD0B4
:100C1C00464B1B68013B454A1360444B1B68002B39
:100C2C0002DC424B63221A60414B1B68002B05D03F
:100C3C003E4B1B681946002000F010FD3D4B1B6815
:100C4C00002B05D0394B1B681946012000F006FD1E
:100C5C00022000F017F90346002B06D0364B0C226D
:100C6C001A70324B1B68354A1360002000F00AF9E9
:100C7C000346002B55D0304B00221A7051E02C4B00
:100C8C001B68002B07D004212D4801F068FC2021A3
:100C9C002B4801F064FC012000F0F4F80346002B13
:100CAC0002D0254B0A221A70032000F0EBF8034601
:100CBC00002B02D0204B08221A701D4B1B68002BF6
:100CCC0005D01A4B1B681946002000F0C7FC194BC5
:100CDC001B68002B05D0154B1B681946012000F032
:100CEC00BDFC002000F0CEF80346002B1BD0124BAD
:100CFC0000221A7017E000BF16E000BF14E000BF1E
:100D0C0012E000BF10E000BF0EE000BF0CE000BF1F
:100D1C000AE000BF08E000BF06E000BF04E000BF2F
:100D2C0002E000BF00E000BF00BF80BD0800002053
:100D3C0064000020680000204900002014000020FE
:100D4C000008014080B584B000AF78607B68032B4D
:100D5C0028D801A252F823F0750D0008830D000865
:100D6C00910D0008A10D00084021114801F0C8FBAD
:100D7C000346FB7317E080210D4801F0C1FB0346CD
:100D8C00FB7310E04FF48071094801F0B9FB034686
:100D9C00FB7308E04FF40071054801F0B1FB03460A
:100DAC00FB7300E000BFFB7B18461037BD4680BDCF
:100DBC000008014080B582B000AF00237B604FE09B
:100DCC002B4A7B68134419782A4A7B6813440A46D9
:100DDC001A707868FFF7B6FF03461946244A7B68F9
:100DEC0013440A461A70224A7B6813441A78214924
:100DFC007B680B441B789A4208D11D4A7B681344CC
:100E0C0019781D4A7B6813440A461A701A4A7B6883
:100E1C0013441B78002B16D1184A7B6832F8133018
:100E2C00632B0AD8154A7B6832F81330013399B218
:100E3C00124A7B6822F813100FE0114A7B681344A6
:100E4C0001221A7009E00D4A7B68002122F8131068
:100E5C000B4A7B68134400221A707B6801337B6059
:100E6C007B68032BACDD00BF00BF0837BD4680BDDF
:100E7C0050000020540000204C0000205C0000209A
:100E8C005800002080B483B000AF78607B68032BDF
:100E9C0001DD002308E0074A7B6813441B78002B14
:100EAC0001D1012300E0002318460C37BD4680BC5D
:100EBC00704700BF4C00002080B483B000AF786056
:100ECC007B68032B01DDFF2308E0074A7B68134492
:100EDC001B78012B01D1012300E0002318460C37AD
:100EEC00BD4680BC704700BF5800002080B582B062
:100EFC0000AF78607B68092B00F28A8101A252F85E
:100F0C0023F000BF390F0008830F0008CD0F000835
:100F1C001710000861100008AB100008F51000084D
:100F2C003F11000889110008D31100080022042188
:100F3C00B94801F0FCFA00220821B74801F0F7FA91
:100F4C0000221021B44801F0F2FA00222021B2480C
:100F5C0001F0EDFA00224021AF4801F0E8FA00223E
:100F6C008021AD4801F0E3FA01224FF48071AA48C8
:100F7C0001F0DDFA4CE101220421A74801F0D7FA77
:100F8C0000220821A44801F0D2FA00221021A24824
:100F9C0001F0CDFA012220219F4801F0C8FA01226C
:100FAC0040219D4801F0C3FA012280219A4801F0AA
:100FBC00BEFA01224FF48071974801F0B8FA27E18C
:100FCC0000220421944801F0B2FA00220821924830
:100FDC0001F0ADFA012210218F4801F0A8FA00228D
:100FEC0020218D4801F0A3FA002240218A4801F00B
:100FFC009EFA01228021884801F099FA00224FF4D0
:10100C008071854801F093FA02E1002204218248A4
:10101C0001F08DFA002208217F4801F088FA0022A5
:10102C0010217D4801F083FA002220217A4801F03A
:10103C007EFA01224021784801F079FA01228021C0
:10104C00754801F074FA00224FF48071724801F077
:10105C006EFADDE0012204216F4801F068FA0022EB
:10106C0008216D4801F063FA002210216A4801F052
:10107C005EFA01222021684801F059FA0122402130
:10108C00654801F054FA00228021634801F04FFAC0
:10109C0000224FF48071604801F049FAB8E0002258
:1010AC0004215D4801F043FA012208215A4801F05D
:1010BC003EFA00221021584801F039FA0022202172
:1010CC00554801F034FA01224021534801F02FFA1F
:1010DC0000228021504801F02AFA00224FF480713E
:1010EC004D4801F024FA93E0002204214A4801F013
:1010FC001EFA01220821484801F019FA0022102199
:10110C00454801F014FA00222021434801F00FFA5F
:10111C0000224021404801F00AFA002280213E487A
:10112C0001F005FA00224FF480713B4801F0FFF901
:10113C006EE000220421384801F0F9F90022082160
:10114C00354801F0F4F900221021334801F0EFF991
:10115C0001222021304801F0EAF9012240212E48D9
:10116C0001F0E5F9012280212B4801F0E0F9012280
:10117C004FF48071284801F0DAF949E0002204218B
:10118C00254801F0D4F900220821234801F0CFF9B9
:10119C0000221021204801F0CAF9002220211E480B
:1011AC0001F0C5F9002240211B4801F0C0F90022D2
:1011BC008021194801F0BBF900224FF480711648C8
:1011CC0001F0B5F924E000220421134801F0AFF935
:1011DC0000220821104801F0AAF9002210210E4823
:1011EC0001F0A5F9002220210B4801F0A0F9012201
:1011FC004021094801F09BF900228021064801F0AA
:10120C0096F900224FF48071034801F090F900BF69
:10121C0000BF0837BD4680BD000C014080B582B0D0
:10122C0000AF78607B68092B00F2C98101A252F8EB
:10123C0023F000BF69120008BF1200081513000844
:10124C006B130008C1130008171400086D14000874
:10125C00C3140008191500087515000800224FF476
:10126C000071C04801F063F900224FF48061BD4861
:10127C0001F05DF900224FF40061BA4801F057F912
:10128C0000224FF48051B74801F051F900224FF47D
:10129C000051B44801F04BF900224FF48041B148A1
:1012AC0001F045F901224FF40041AE4801F03FF93D
:1012BC0085E101224FF40071AA4801F038F90022AF
:1012CC004FF48061A74801F032F900224FF400611D
:1012DC00A44801F02CF901224FF48051A14801F0EF
:1012EC0026F901224FF400519E4801F020F9012209
:1012FC004FF480419B4801F01AF901224FF4004150
:10130C00984801F014F95AE100224FF40071954805
:10131C0001F00DF900224FF48061924801F007F9B9
:10132C0001224FF400618F4801F001F900224FF4C3
:10133C0080518C4801F0FBF800224FF40051894891
:10134C0001F0F5F801224FF48041864801F0EFF8E6
:10135C0000224FF40041834801F0E9F82FE100220C
:10136C004FF400717F4801F0E2F800224FF48061E5
:10137C007C4801F0DCF800224FF40061794801F060
:10138C00D6F800224FF48051764801F0D0F80122B3
:10139C004FF40051734801F0CAF801224FF4804118
:1013AC00704801F0C4F800224FF400416D4801F080
:1013BC00BEF804E101224FF400716A4801F0B7F85D
:1013CC0000224FF48061674801F0B1F800224FF41D
:1013DC000061644801F0ABF801224FF48051614880
:1013EC0001F0A5F801224FF400515E4801F09FF87E
:1013FC0000224FF480415B4801F099F800224FF431
:10140C000041584801F093F8D9E000224FF40071E4
:10141C00544801F08CF801224FF48061514801F0DE
:10142C0086F800224FF400614E4801F080F800224B
:10143C004FF480514B4801F07AF801224FF40051DF
:10144C00484801F074F800224FF48041454801F0FF
:10145C006EF800224FF40041424801F068F8AEE00B
:10146C0000224FF400713F4801F061F801224FF463
:10147C0080613C4801F05BF800224FF40061394870
:10148C0001F055F800224FF48051364801F04FF826
:10149C0000224FF40051334801F049F800224FF478
:1014AC008041304801F043F800224FF400412D48B0
:1014BC0001F03DF883E000224FF40071294801F05F
:1014CC0036F800224FF48061264801F030F80022F3
:1014DC004FF40061234801F02AF801224FF48051A7
:1014EC00204801F024F801224FF400511D4801F06E
:1014FC001EF801224FF480411A4801F018F801221D
:10150C004FF40041174801F012F858E000224FF454
:10151C000071144801F00BF800224FF4806111485F
:10152C0001F005F800224FF400610E4800F0FFFFB7
:10153C0000224FF480510B4800F0F9FF00224FF4C9
:10154C000051084800F0F3FF00224FF48041054899
:10155C0000F0EDFF00224FF40041024800F0E7FFDD
:10156C002DE000BF000C014000224FF40071164822
:10157C0000F0DDFF00224FF48061134800F0D7FF2C
:10158C0000224FF40061104800F0D1FF00224FF40C
:10159C0080510D4800F0CBFF01224FF400510A4856
:1015AC0000F0C5FF00224FF48041074800F0BFFF58
:1015BC0000224FF40041044800F0B9FF00BF00BF07
:1015CC000837BD4680BD00BF000C014080B582B01D
:1015DC0000AF786039607B68002B03D07B68012BEF
:1015EC0017D032E000224FF480611A4800F09FFFC0
:1015FC0001224FF40061174800F099FF3B68164A2E
:10160C0082FB03129210DB17D31A1846FFF76EFCFD
:10161C001BE001224FF480610E4800F088FF00228D
:10162C004FF400610B4800F082FF3A680A4B83FBD1
:10163C0002139910D317C91A0B469B000B445B007D
:10164C00D11A0846FFF752FC00BF00BF0837BD4651
:10165C0080BD00BF000801406766666680B582B039
:10166C0000AF786039607B68002B03D07B68012B5E
:10167C0017D032E000224FF480511A4800F057FF87
:10168C0001224FF40051174800F051FF3B68164AF5
:10169C0082FB03129210DB17D31A1846FFF7BEFD1C
:1016AC001BE001224FF480510E4800F040FF002255
:1016BC004FF400510B4800F03AFF3A680A4B83FB99
:1016CC0002139910D317C91A0B469B000B445B00ED
:1016DC00D11A0846FFF7A2FD00BF00BF0837BD4670
:1016EC0080BD00BF000801406766666680B500AF2C
:1016FC0000F01CFC00F03EF800F0C4F800F076F8A6
:10170C00174801F07DFB4FF47A7000F0B3F94FF4F9
:10171C00FA7000F0C5F9FA2000F0D8F901224FF464
:10172C000041104800F003FF0F4B1B68012B05D143
:10173C00FEF74CFD4FF47A7000F09CF90B4B1B68D4
:10174C00012B05D1FEF742FD4FF47A7000F0A8F999
:10175C00074B1B68012BE7D1FA2000F0B7F9E3E740
:10176C008000002000080140680000206400002078
:10177C006C00002080B590B000AF07F11803282250
:10178C000021184601F0F4FE3B1D00221A605A603D
:10179C009A60DA601A610223BB610123BB621023D9
:1017AC00FB6200237B6307F11803184600F0F0FE80
:1017BC000346002B01D000F0C9F80F237B600023F7
:1017CC00BB600023FB6000233B6100237B613B1D5E
:1017DC000021184601F05CF90346002B01D000F003
:1017EC00B5F800BF4037BD4680BD000080B586B05F
:1017FC0000AF07F1080300221A605A609A60DA60A1
:10180C003B4600221A605A601D4B4FF080421A6012
:10181C001B4B41F63F725A60194B00229A60184BD1
:10182C000922DA60164B00221A61154B00229A61CC
:10183C00134801F095FA0346002B01D000F086F80E
:10184C004FF48053BB6007F1080319460C4801F0B4
:10185C002BFC0346002B01D000F078F800233B60F2
:10186C0000237B603B461946054801F0F3FD034617
:10187C00002B01D000F06AF800BF1837BD4680BDC0
:10188C008000002080B586B000AF07F1080300226D
:10189C001A605A609A60DA60294B9B69284A43F0B7
:1018AC0004039361264B9B6903F004037B607B6804
:1018BC00234B9B69224A43F008039361204B9B699D
:1018CC0003F008033B603B6800224BF63F411D4888
:1018DC0000F02DFE00224FF6FC711B4800F027FE95
:1018EC004BF63F43BB600123FB6000233B610223AB
:1018FC007B6107F108031946124800F087FC4FF48E
:10190C007073BB600023FB6000233B6107F108038D
:10191C0019460C4800F07AFC4FF6FC73BB600123AF
:10192C00FB6000233B6102237B6107F1080319462E
:10193C00054800F06BFC00BF1837BD4680BD00BFEA
:10194C000010024000080140000C014080B400AFC0
:10195C0072B600BFFEE7000080B485B000AF154B37
:10196C009B69144A43F001039361124B9B6903F08A
:10197C000103BB60BB680F4BDB690E4A43F080531D
:10198C00D3610C4BDB6903F080537B607B680A4BA3
:10199C005B68FB60FB6823F0E063FB60FB6843F073
:1019AC008063FB60044AFB68536000BF1437BD467C
:1019BC0080BC7047001002400000014080B584B02C
:1019CC0000AF78607B681B68B3F1804F13D10C4B70
:1019DC00DB690B4A43F00103D361094BDB6903F06C
:1019EC000103FB60FB68002200211C2000F0D7FBE8
:1019FC001C2000F0F0FB00BF1037BD4680BD00BFBF
:101A0C000010024080B400AFFEE780B400AFFEE7E8
:101A1C0080B400AFFEE780B400AFFEE780B400AF47
:101A2C00FEE780B400AF00BFBD4680BC704780B4F9
:101A3C0000AF00BFBD4680BC704780B400AF00BF94
:101A4C00BD4680BC704780B500AF00F0B5FA00BF52
:101A5C0080BD000080B500AF024801F01DFA00BF48
:101A6C0080BD00BF8000002080B400AF00BFBD4629
:101A7C0080BC704780B483B000AF78600A227B686A
:101A8C0093FBF2F3044A1360044B00221A6000BF6C
:101A9C000C37BD4680BC70477000002068000020E9
:101AAC0080B483B000AF78600A227B6893FBF2F3BA
:101ABC00044A1360044B00221A6000BF0C37BD4669
:101ACC0080BC7047740000206400002080B483B098
:101ADC0000AF78600A227B6893FBF2F3044A136030
:101AEC00044B00221A6000BF0C37BD4680BC704707
:101AFC00780000206C00002080B400AF194B1B68EC
:101B0C00002B0BDD174B1B68013B164A1360154B62
:101B1C001B68002B02D1144B01221A60134B1B685B
:101B2C00002B0BDD114B1B68013B104A13600F4B54
:101B3C001B68002B02D10E4B01221A600D4B1B6847
:101B4C00002B0BDD0B4B1B68013B0A4A1360094B46
:101B5C001B68002B02D1084B01221A6000BFBD4646
:101B6C0080BC7047700000206800002074000020CA
:101B7C0064000020780000206C00002080B582B04A
:101B8C0000AF7860FFF716F9FFF7B6FF00BF083714
:101B9C00BD4680BD80B500AF00220121074800F092
:101BAC00C6FC01220221054800F0C1FC01220421DF
:101BBC00024800F0BCFC00BF80BD00BF0008014023
:101BCC0080B500AF00220821074800F0B0FC0122CC
:101BDC001021054800F0ABFC01222021024800F046
:101BEC00A6FC00BF80BD00BF0008014080B500AF5F
:101BFC0001220121074800F09AFC0022022105482D
:101C0C0000F095FC01220421024800F090FC00BF7A
:101C1C0080BD00BF0008014080B500AF0122082143
:101C2C00074800F084FC00221021054800F07FFCDE
:101C3C0001222021024800F07AFC00BF80BD00BFC9
:101C4C000008014080B500AF01220121074800F0D7
:101C5C006EFC01220221054800F069FC00220421DF
:101C6C00024800F064FC00BF80BD00BF00080140CA
:101C7C0080B500AF01220821074800F058FC012272
:101C8C001021054800F053FC00222021024800F0EE
:101C9C004EFC00BF80BD00BF0008014080B582B083
:101CAC0000AF78603960874B1A78874B1A70864B77
:101CBC001B78032B00F2018101A252F823F000BF24
:101CCC00DD1C0008531D0008CD1D0008411E000836
:101CDC00FFF760FFFFF7CCFF7B68002B0BD07B4B33
:101CEC001B6819460020FFF771FC794B1B681946DD
:101CFC000020FFF7B3FC3B68002B15D0734B1B681F
:101D0C0019460120FFF762FC714B1B681946012034
:101D1C00FFF7A4FC6D4B1B68013B6C4A13606C4BCA
:101D2C001B68013B6A4A1360684B1A68694B1B6855
:101D3C009A4240F0BB80634B01221A70654B1B68C2
:101D4C00634A1360B2E0FFF725FFFFF765FF7B687E
:101D5C00002B0BD05D4B1B6819460020FFF736FC9F
:101D6C005B4B1B6819460020FFF778FC3B68002B87
:101D7C0015D0564B1B6819460120FFF727FC544B16
:101D8C001B6819460120FFF769FC504B1B68013B8F
:101D9C004E4A13604E4B1B68013B4D4A13604B4B34
:101DAC001B68002B00F38480464B02221A704A4BAE
:101DBC001B68464A1360494B1B68454A136077E021
:101DCC00FFF7FEFEFFF73EFF7B68002B0BD03F4B6F
:101DDC001B6819460020FFF7F9FB3D4B1B681946A1
:101DEC000020FFF73BFC3B68002B15D0374B1B68E2
:101DFC0019460120FFF7EAFB354B1B6819460120F9
:101E0C00FFF72CFC314B1B68013B304A1360304B05
:101E1C001B68013B2E4A13602D4B1A682D4B1B6817
:101E2C009A4247D1274B03221A702A4B1B68274A28
:101E3C0013603FE0FFF7C4FEFFF7D8FE7B68002B72
:101E4C000BD0224B1B6819460020FFF7BFFB204B21
:101E5C001B6819460020FFF701FC3B68002B15D0CE
:101E6C001A4B1B6819460120FFF7B0FB184B1B6877
:101E7C0019460120FFF7F2FB144B1B68013B134A78
:101E8C001360134B1B68013B114A13600F4B1B680B
:101E9C00002B11D10B4B00221A70104B1B680B4AF4
:101EAC0013600D4B1B680A4A136005E000BF04E089
:101EBC0000BF02E000BF00E000BF00BF0837BD4616
:101ECC0080BD00BF7D0000207C0000201C00002095
:101EDC002000002010000020140000200C00002026
:101EEC000C480D490D4A002302E0D458C450043369
:101EFC00C4188C42F9D30A4A0A4C002301E013603F
:101F0C000432A242FBD3FFF7AFFD01F00DFBFFF74C
:101F1C00EDFB7047000000202C000020CC350008A1
:101F2C002C000020CC000020FEE7000080B500AFA4
:101F3C00084B1B68074A43F010031360032000F0A2
:101F4C0023F90F2000F008F8FFF706FD00231846D0
:101F5C0080BD00BF0020024080B582B000AF786029
:101F6C00124B1A68124B1B7819464FF47A73B3FB59
:101F7C00F1F3B2FBF3F3184600F03BF90346002BE8
:101F8C0001D001230EE07B680F2B0AD80022796860
:101F9C004FF0FF3000F003F9064A7B681360002312
:101FAC0000E0012318460837BD4680BD180000200C
:101FBC00280000202400002080B400AF054B1B78C3
:101FCC001A46054B1B681344034A136000BFBD46F9
:101FDC0080BC704728000020C800002080B400AFEF
:101FEC00024B1B681846BD4680BC7047C8000020D9
:101FFC0080B485B000AF78607B6803F00703FB60AA
:10200C000C4BDB68BB60BA684FF6FF031340BB6038
:10201C00FB681A02BB68134343F0BF6343F40033FD
:10202C00BB60044ABB68D36000BF1437BD4680BC9C
:10203C00704700BF00ED00E080B400AF044BDB68DC
:10204C001B0A03F007031846BD4680BC704700BF4F
:10205C0000ED00E080B483B000AF0346FB7197F94C
:10206C000730002B0BDBFB7903F01F02064997F9B5
:10207C0007305B09012000FA02F241F8232000BF6F
:10208C000C37BD4680BC704700E100E080B483B0E3
:10209C0000AF03463960FB7197F90730002B0ADB60
:1020AC003B68DAB20C4997F907301201D2B20B44F3
:1020BC0083F800230AE03B68DAB20849FB7903F0A5
:1020CC000F03043B1201D2B20B441A7600BF0C373B
:1020DC00BD4680BC704700BF00E100E000ED00E0B1
:1020EC0080B489B000AFF860B9607A60FB6803F027
:1020FC000703FB61FB69C3F10703042B28BF04230F
:10210C00BB61FB690433062B02D9FB69033B00E07E
:10211C0000237B614FF0FF32BB6902FA03F3DA4311
:10212C00BB681A407B699A404FF0FF317B6901FA1A
:10213C0003F3D9437B680B40134318462437BD4641
:10214C0080BC704780B582B000AF78607B68013B83
:10215C00B3F1807F01D301230FE00A4A7B68013B76
:10216C0053600F214FF0FF30FFF790FF054B00221B
:10217C009A60044B07221A60002318460837BD46A4
:10218C0080BD00BF10E000E080B582B000AF786089
:10219C007868FFF72DFF00BF0837BD4680BD80B5BE
:1021AC0086B000AF0346B9607A60FB7300237B6195
:1021BC00FFF742FF78617A68B9687869FFF790FF9A
:1021CC00024697F90F3011461846FFF75FFF00BF24
:1021DC001837BD4680BD80B582B000AF0346FB7199
:1021EC0097F907301846FFF735FF00BF0837BD4693
:1021FC0080BD80B582B000AF78607868FFF7A2FF31
:10220C00034618460837BD4680BD000080B48BB02D
:10221C0000AF7860396000237B6200233B6248E1A9
:10222C0001227B6A02FA03F3FB613B681B68FA69C3
:10223C001340BB61BA69FB699A4240F037813B6835
:10224C005B68A34A93425ED0A14A934275D8A14AD7
:10225C00934258D09F4A93426FD89F4A934252D090
:10226C009D4A934269D89D4A93424CD09B4A9342D3
:10227C0063D89B4A934246D0994A93425DD8122B1D
:10228C002AD8122B59D801A252F823F01323000894
:10229C00ED220008FF220008412300084723000814
:1022AC00472300084723000847230008472300085A
:1022BC00472300084723000847230008472300084A
:1022CC00472300084723000847230008472300083A
:1022DC00F522000809230008824A934213D02CE00F
:1022EC003B68DB683B6229E03B68DB6804333B629C
:1022FC0024E03B68DB6808333B621FE03B68DB682B
:10230C000C333B621AE03B689B68002B02D1042320
:10231C003B6213E03B689B68012B05D108233B62B1
:10232C007B68FA691A6109E008233B627B68FA69E9
:10233C005A6103E000233B6200E000BFBB69FF2B46
:10234C0001D87B6801E07B6804337B61BB69FF2BA0
:10235C0002D87B6A9B0002E07B6A083B9B003B61D6
:10236C007B691A680F213B6901FA03F3DB431A40BE
:10237C00396A3B6901FA03F31A437B691A603B68BB
:10238C005B6803F08053002B00F09080564B9B69E8
:10239C00554A43F001039361534B9B6903F00103CE
:1023AC00BB60BB68514A7B6A9B08023352F82330EE
:1023BC00FB607B6A03F003039B000F2202FA03F31A
:1023CC00DB43FA681340FB607B68494A93420DD0AB
:1023DC007B68484A934207D07B68474A934201D1B5
:1023EC00022304E0032302E0012300E000237A6AC5
:1023FC0002F0030292009340FA681343FB603B49DE
:10240C007B6A9B080233FA6841F823203B685B68BF
:10241C0003F48033002B06D0384B1A683749BB695C
:10242C0013430B6006E0354B1A68BB69DB43334939
:10243C0013400B603B685B6803F40033002B06D041
:10244C002E4B5A682D49BB6913434B6006E02B4B4E
:10245C005A68BB69DB43294913404B603B685B6896
:10246C0003F48013002B06D0244B9A682349BB69D4
:10247C0013438B6006E0214B9A68BB69DB431F4911
:10248C0013408B603B685B6803F40013002B06D091
:10249C001A4BDA681949BB691343CB6006E0174B3A
:1024AC00DA68BB69DB4315491340CB607B6A0133A7
:1024BC007B623B681A687B6A22FA03F3002B7FF479
:1024CC00AFAE00BF00BF2C37BD4680BC704700BF0D
:1024DC00000032100000311000002210000021100A
:1024EC00000012100000111000100240000001400A
:1024FC0000080140000C01400010014000040140A4
:10250C0080B485B000AF78600B467B807B689A689E
:10251C007B881340002B02D00123FB7301E00023C6
:10252C00FB73FB7B18461437BD4680BC704780B4E8
:10253C0083B000AF78600B467B8013467B707B7852
:10254C00002B03D07A887B681A6103E07B881A041D
:10255C007B681A6100BF0C37BD4680BC704780B4E5
:10256C0085B000AF78600B467B807B68DB68FB60D6
:10257C007A88FB6813401A04FB68D9437B880B40AC
:10258C001A437B681A6100BF1437BD4680BC704784
:10259C0080B586B000AF78607B68002B01D1012339
:1025AC006CE27B681B6803F00103002B00F0878052
:1025BC00924B5B6803F00C03042B0CD08F4B5B68C5
:1025CC0003F00C03082B12D18C4B5B6803F48033A3
:1025DC00B3F5803F0BD1894B1B6803F40033002B00
:1025EC006CD07B685B68002B68D1012346E27B686A
:1025FC005B68B3F5803F06D1804B1B687F4A43F480
:10260C00803313602EE07B685B68002B0CD17B4B16
:10261C001B687A4A23F480331360784B1B68774A23
:10262C0023F4802313601DE07B685B68B3F5A02F57
:10263C000CD1724B1B68714A43F4802313606F4BAF
:10264C001B686E4A43F4803313600BE06B4B1B68C2
:10265C006A4A23F480331360684B1B68674A23F47F
:10266C00802313607B685B68002B13D0FFF7B6FCEC
:10267C00386108E0FFF7B2FC02463B69D31A642BC1
:10268C0001D90323FAE15D4B1B6803F40033002BE3
:10269C00F0D014E0FFF7A2FC386108E0FFF79EFCD5
:1026AC0002463B69D31A642B01D90323E6E1534B51
:1026BC001B6803F40033002BF0D100E000BF7B68F3
:1026CC001B6803F00203002B63D04C4B5B6803F0D8
:1026DC000C03002B0BD0494B5B6803F00C03082B4D
:1026EC001CD1464B5B6803F48033002B16D1434B53
:1026FC001B6803F00203002B05D07B681B69012BC0
:10270C0001D00123BAE13D4B1B6823F0F8027B6832
:10271C005B69DB00394913430B603AE07B681B694A
:10272C00002B20D0364B01221A60FFF757FC386182
:10273C0008E0FFF753FC02463B69D31A022B01D980
:10274C0003239BE12D4B1B6803F00203002BF0D0FD
:10275C002A4B1B6823F0F8027B685B69DB00274976
:10276C0013430B6015E0264B00221A60FFF736FC72
:10277C00386108E0FFF732FC02463B69D31A022BA2
:10278C0001D903237AE11D4B1B6803F00203002BD4
:10279C00F0D17B681B6803F00803002B3AD07B68F0
:1027AC009B69002B19D0174B01221A60FFF716FCFE
:1027BC00386108E0FFF712FC02463B69D31A022B82
:1027CC0001D903235AE10D4B5B6A03F00203002B82
:1027DC00F0D0012000F0A6FA1CE00A4B00221A608F
:1027EC00FFF7FCFB38610FE0FFF7F8FB02463B6993
:1027FC00D31A022B08D9032340E100BF001002407A
:10280C0000004242800442429E4B5B6A03F002038A
:10281C00002BE9D17B681B6803F00403002B00F04C
:10282C00A6800023FB75974BDB6903F08053002BCC
:10283C000DD1944BDB69934A43F08053D361914B98
:10284C00DB6903F08053BB60BB680123FB758E4BC7
:10285C001B6803F48073002B18D18B4B1B688A4ABE
:10286C0043F480731360FFF7B9FB386108E0FFF79E
:10287C00B5FB02463B69D31A642B01D90323FDE057
:10288C00814B1B6803F48073002BF0D07B68DB68F2
:10289C00012B06D17B4B1B6A7A4A43F0010313626E
:1028AC002DE07B68DB68002B0CD1764B1B6A754ADC
:1028BC0023F001031362734B1B6A724A23F0040367
:1028CC0013621CE07B68DB68052B0CD16D4B1B6A1B
:1028DC006C4A43F0040313626A4B1B6A694A43F067
:1028EC00010313620BE0674B1B6A664A23F001037A
:1028FC001362644B1B6A634A23F0040313627B6804
:10290C00DB68002B15D0FFF769FB38610AE0FFF795
:10291C0065FB02463B69D31A41F28832934201D9D6
:10292C000323ABE0574B1B6A03F00203002BEED0E2
:10293C0014E0FFF753FB38610AE0FFF74FFB024648
:10294C003B69D31A41F28832934201D9032395E0B3
:10295C004C4B1B6A03F00203002BEED1FB7D012BC9
:10296C0005D1484BDB69474A23F08053D3617B6820
:10297C00DB69002B00F08180424B5B6803F00C0399
:10298C00082B61D07B68DB69022B46D13F4B0022C0
:10299C001A60FFF723FB386108E0FFF71FFB0246C4
:1029AC003B69D31A022B01D9032367E0354B1B6813
:1029BC0003F00073002BF0D17B681B6AB3F5803FEA
:1029CC0008D1304B5B6823F400327B689B682D493F
:1029DC0013434B602B4B5B6823F474127B68196AAE
:1029EC007B685B6A0B43274913434B60274B0122DF
:1029FC001A60FFF7F3FA386108E0FFF7EFFA0246C6
:102A0C003B69D31A022B01D9032337E01D4B1B68FA
:102A1C0003F00073002BF0D02FE01C4B00221A6047
:102A2C00FFF7DCFA386108E0FFF7D8FA02463B6999
:102A3C00D31A022B01D9032320E0124B1B6803F09D
:102A4C000073002BF0D118E07B68DB69012B01D1FE
:102A5C00012313E00B4B5B68FB60FB6803F48032D3
:102A6C007B681B6A9A4206D1FB6803F470127B6880
:102A7C005B6A9A4201D0012300E000231846183704
:102A8C00BD4680BD00100240007000406000424214
:102A9C0080B584B000AF786039607B68002B01D1C1
:102AAC000123D0E06A4B1B6803F007033A689A4293
:102ABC0010D9674B1B6823F0070265493B68134329
:102ACC000B60634B1B6803F007033A689A4201D012
:102ADC000123B8E07B681B6803F00203002B20D0B5
:102AEC007B681B6803F00403002B05D0594B5B6813
:102AFC00584A43F4E06353607B681B6803F0080397
:102B0C00002B05D0534B5B68524A43F4605353601F
:102B1C00504B5B6823F0F0027B689B684D49134374
:102B2C004B607B681B6803F00103002B40D07B6873
:102B3C005B68012B07D1474B1B6803F40033002B58
:102B4C0015D101237FE07B685B68022B07D1414BD9
:102B5C001B6803F00073002B09D1012373E03D4B7C
:102B6C001B6803F00203002B01D101236BE0394BEE
:102B7C005B6823F003027B685B68364913434B6048
:102B8C00FFF72CFAF8600AE0FFF728FA0246FB6818
:102B9C00D31A41F28832934201D9032353E02D4BCF
:102BAC005B6803F00C027B685B689B009A42EBD17C
:102BBC00274B1B6803F007033A689A4210D2244B48
:102BCC001B6823F0070222493B6813430B60204B20
:102BDC001B6803F007033A689A4201D0012332E0E4
:102BEC007B681B6803F00403002B08D0194B5B684F
:102BFC0023F4E0627B68DB68164913434B607B6807
:102C0C001B6803F00803002B09D0124B5B6823F4FC
:102C1C0060527B681B69DB000E4913434B6000F06C
:102C2C0021F802460B4B5B681B0903F00F030A49A2
:102C3C00CB5C22FA03F3094A1360094B1B68184654
:102C4C00FFF78AF9002318461037BD4680BD00BF38
:102C5C000020024000100240B4350008180000208B
:102C6C002400002090B48AB000AF2A4B3C1D0FCB3F
:102C7C0084E80F0040F201233B800023FB6100231A
:102C8C00BB6100237B6200237B6100233B62224BF0
:102C9C005B68FB61FB6903F00C03042B02D0082B6F
:102CAC0003D02DE01D4B3B622DE0FB699B0C03F028
:102CBC000F0307F12802134413F8243C7B61FB69D2
:102CCC0003F48033002B13D0134B5B685B0C03F0C5
:102CDC00010307F12802134413F8283CBB617B69FC
:102CEC000E4A02FB03F2BB69B2FBF3F37B6204E016
:102CFC007B690B4A02FB03F37B627B6A3B6202E05B
:102D0C00064B3B6200BF3B6A18462837BD4690BC59
:102D1C00704700BFA43500080010024000127A0072
:102D2C0000093D0080B485B000AF78600A4B1B6889
:102D3C000A4AA2FB03235B0A7A6802FB03F3FB60DB
:102D4C0000BFFB685A1EFA60002BF9D100BF00BF10
:102D5C001437BD4680BC704718000020D34D62105C
:102D6C0080B582B000AF78607B68002B01D1012365
:102D7C0041E07B6893F83D30DBB2002B06D17B68D9
:102D8C00002283F83C207868FEF718FE7B6802224C
:102D9C0083F83D207B681A687B680433194610461B
:102DAC0000F06AFA7B68012283F846207B680122D6
:102DBC0083F83E207B68012283F83F207B68012248
:102DCC0083F840207B68012283F841207B68012234
:102DDC0083F842207B68012283F843207B68012220
:102DEC0083F844207B68012283F845207B6801220C
:102DFC0083F83D20002318460837BD4680BD0000EF
:102E0C0080B485B000AF78607B6893F83D30DBB25E
:102E1C00012B01D0012335E07B68022283F83D2091
:102E2C007B681B68DA687B681B6842F00102DA6019
:102E3C007B681B68164A934209D07B681B68B3F108
:102E4C00804F04D07B681B68124A934211D17B6877
:102E5C001B689B6803F00703FB60FB68062B10D014
:102E6C007B681B681A687B681B6842F001021A6059
:102E7C0007E07B681B681A687B681B6842F00102DC
:102E8C001A60002318461437BD4680BC704700BF3B
:102E9C00002C01400004004080B582B000AF786087
:102EAC007B681B681B6903F00203022B22D17B6831
:102EBC001B68DB6803F00203022B1BD17B681B68C9
:102ECC006FF002021A617B6801221A777B681B681B
:102EDC009B6903F00303002B03D0786800F0B1F971
:102EEC0005E0786800F0A4F9786800F0B3F97B6825
:102EFC0000221A777B681B681B6903F00403042B00
:102F0C0022D17B681B68DB6803F00403042B1BD104
:102F1C007B681B686FF004021A617B6802221A77C7
:102F2C007B681B689B6903F44073002B03D07868A3
:102F3C0000F087F905E0786800F07AF9786800F01D
:102F4C0089F97B6800221A777B681B681B6903F080
:102F5C000803082B22D17B681B68DB6803F008038D
:102F6C00082B1BD17B681B686FF008021A617B6809
:102F7C0004221A777B681B68DB6903F00303002BC0
:102F8C0003D0786800F05DF905E0786800F050F93E
:102F9C00786800F05FF97B6800221A777B681B6801
:102FAC001B6903F01003102B22D17B681B68DB68B4
:102FBC0003F01003102B1BD17B681B686FF0100201
:102FCC001A617B6808221A777B681B68DB6903F43B
:102FDC004073002B03D0786800F033F905E0786873
:102FEC0000F026F9786800F035F97B6800221A7732
:102FFC007B681B681B6903F00103012B0ED17B68F6
:10300C001B68DB6803F00103012B07D17B681B688D
:10301C006FF001021A617868FEF7B0FD7B681B68DF
:10302C001B6903F08003802B0ED17B681B68DB6867
:10303C0003F08003802B07D17B681B686FF0800244
:10304C001A61786800F067FA7B681B681B6903F0EB
:10305C004003402B0ED17B681B68DB6803F04003F8
:10306C00402B07D17B681B686FF040021A617868AF
:10307C0000F0F9F87B681B681B6903F02003202B18
:10308C000ED17B681B68DB6803F02003202B07D173
:10309C007B681B686FF020021A61786800F032FAC6
:1030AC0000BF0837BD4680BD80B584B000AF7860E6
:1030BC0039607B6893F83C30012B01D10223B3E0DB
:1030CC007B68012283F83C207B68022283F83D2038
:1030DC007B681B689B68FB60FB6823F07703FB60D5
:1030EC00FB6823F47F43FB607B681B68FA689A607B
:1030FC003B681B68B3F5005F3ED0B3F5005F00F290
:10310C008780B3F5805F00F08580B3F5805F7FD852
:10311C00702B1AD0702B7BD8602B50D0602B77D8AB
:10312C00502B3CD0502B73D8402B58D0402B6FD801
:10313C00302B64D0302B6BD8202B60D0202B67D851
:10314C00002B5CD0102B5AD062E07B6818683B686F
:10315C0099683B685A683B68DB6800F05CF97B68EF
:10316C001B689B68FB60FB6843F07703FB607B6824
:10317C001B68FA689A604EE07B6818683B6899682F
:10318C003B685A683B68DB6800F045F97B681B6854
:10319C009A687B681B6842F480429A603BE07B68CB
:1031AC0018683B6859683B68DB681A4600F0BCF845
:1031BC007B681B685021184600F013F92BE07B68E4
:1031CC0018683B6859683B68DB681A4600F0DAF807
:1031DC007B681B686021184600F003F91BE07B68D4
:1031EC0018683B6859683B68DB681A4600F09CF825
:1031FC007B681B684021184600F0F3F80BE07B68F5
:10320C001A683B681B681946104600F0EAF802E0A1
:10321C0000BF00E000BF7B68012283F83D207B6883
:10322C00002283F83C20002318461037BD4680BD91
:10323C0080B483B000AF786000BF0C37BD4680BC53
:10324C00704780B483B000AF786000BF0C37BD46C8
:10325C0080BC704780B483B000AF786000BF0C377F
:10326C00BD4680BC704780B483B000AF786000BFAF
:10327C000C37BD4680BC704780B485B000AF786019
:10328C0039607B681B68FB607B68254A934207D0DA
:10329C007B68B3F1804F03D07B68224A934208D1FC
:1032AC00FB6823F07003FB603B685B68FA681343B0
:1032BC00FB607B681A4A934207D07B68B3F1804F5E
:1032CC0003D07B68174A934208D1FB6823F4407300
:1032DC00FB603B68DB68FA681343FB60FB6823F018
:1032EC0080023B685B691343FB607B68FA681A6079
:1032FC003B689A687B68DA623B681A687B689A62FA
:10330C007B68074A934203D13B681A697B681A634E
:10331C007B6801225A6100BF1437BD4680BC7047E0
:10332C00002C01400004004080B487B000AFF8606E
:10333C00B9607A60FB681B6A7B61FB681B6A23F0CF
:10334C000102FB681A62FB689B693B613B6923F0D5
:10335C00F0033B617B681B013A6913433B617B695A
:10336C0023F00A037B617A69BB6813437B61FB68BA
:10337C003A699A61FB687A691A6200BF1C37BD46CC
:10338C0080BC704780B487B000AFF860B9607A60D9
:10339C00FB681B6A23F01002FB681A62FB689B69CE
:1033AC007B61FB681B6A3B617B6923F470437B6127
:1033BC007B681B037A6913437B613B6923F0A00391
:1033CC003B61BB681B013A6913433B61FB687A693B
:1033DC009A61FB683A691A6200BF1C37BD4680BC13
:1033EC00704780B485B000AF786039607B689B68AB
:1033FC00FB60FB6823F07003FB603A68FB681343C7
:10340C0043F00703FB607B68FA689A6000BF1437CF
:10341C00BD4680BC704780B487B000AFF860B9601F
:10342C007A603B60FB689B687B617B6923F47F431C
:10343C007B613B681A027B681A43BB6813437A6949
:10344C0013437B61FB687A699A6000BF1C37BD46E9
:10345C0080BC704780B485B000AF786039607B6801
:10346C0093F83C30012B01D1022341E07B6801220F
:10347C0083F83C207B68022283F83D207B681B6824
:10348C005B68FB607B681B689B68BB60FB6823F018
:10349C007003FB603B681B68FA681343FB607B6836
:1034AC001B68FA685A607B681B68144A934209D0FF
:1034BC007B681B68B3F1804F04D07B681B68104A93
:1034CC0093420CD1BB6823F08003BB603B685B6804
:1034DC00BA681343BB607B681B68BA689A607B68E8
:1034EC00012283F83D207B68002283F83C200023D6
:1034FC0018461437BD4680BC704700BF002C0140F5
:10350C000004004080B483B000AF786000BF0C377B
:10351C00BD4680BC704780B483B000AF786000BFFC
:10352C000C37BD4680BC704770B500260C4D0D4C59
:10353C00641BA410A64209D100F022F800260A4D03
:10354C000A4C641BA410A64205D170BD55F8043B6F
:10355C0098470136EEE755F8043B98470136F2E7F9
:10356C00C4350008C4350008C4350008C835000847
:10357C0003460244934200D1704703F8011BF9E75C
:10358C00F8B500BFF8BC08BC9E467047F8B500BF44
:08359C00F8BC08BC9E46704714
:1035A40002030405060708090A0B0C0D0E0F101080
:1035B40000000000000000000102030406070809DF
:0435C40031010008C9
:0435C8000D010008E9
:1035CC0005000000020000000300000005000000E0
:1035DC0002000000030000000024F40005000000BD
:0C35EC00030000001000000001000000BF
:0400000508001EEDE4
:00000001FF
