:020000040800F2
:1000000000280020711100080111000807110008E4
:100010000D1100081311000819110008000000005C
:100020000000000000000000000000001F11000898
:100030002B110008000000003711000843110008D0
:10004000B9110008B9110008B9110008B911000868
:10005000B9110008B9110008B9110008B911000858
:10006000B9110008B9110008B9110008B911000848
:10007000B9110008B9110008B9110008B911000838
:10008000B9110008B9110008B9110008B911000828
:10009000B9110008B9110008B9110008B911000818
:1000A000B9110008B9110008B9110008B911000808
:1000B00051110008B911000800000000B911000832
:1000C000B91100080000000000000000B91100088C
:1000D00000000000B9110008B9110008000000007C
:1000E000B9110008B9110008B9110008000000009A
:1000F0000000000000000000000000000000000000
:0C01000000000000000000005FF808F1A3
:10010C0010B5054C237833B9044B13B10448AFF345
:10011C0000800123237010BD980100200000000016
:10012C00E427000808B5034B1BB103490348AFF3A0
:10013C00008008BD000000009C010020E42700089E
:10014C0080B582B000AF78607B68072B48D801A2DD
:10015C0052F823F0810100088D0100089901000874
:10016C00A7010008B5010008C3010008D10100086F
:10017C00DF010008002204211C4801F003FB30E0E1
:10018C0000220821194801F0FDFA2AE000224FF460
:10019C008061164801F0F6FA23E000224FF400616A
:1001AC00124801F0EFFA1CE000224FF480510F4886
:1001BC0001F0E8FA15E000224FF400510B4801F071
:1001CC00E1FA0EE000224FF48041084801F0DAFA1F
:1001DC0007E000224FF40041044801F0D3FA00E09C
:1001EC0000BF00BF0837BD4680BD00BF00080140FE
:1001FC0080B582B000AF78607B68072B48D801A22D
:10020C0052F823F0310200083D02000849020008B0
:10021C0057020008650200087302000881020008FA
:10022C008F020008012204211C4801F0ABFA30E0D7
:10023C0001220821194801F0A5FA2AE001224FF405
:10024C008061164801F09EFA23E001224FF4006110
:10025C00124801F097FA1CE001224FF480510F482C
:10026C0001F090FA15E001224FF400510B4801F017
:10027C0089FA0EE001224FF48041084801F082FA1D
:10028C0007E001224FF40041044801F07BFA00E042
:10029C0000BF00BF0837BD4680BD00BF000801404D
:1002AC0080B58AB000AF03463960FB713B68072B01
:1002BC0000F2E48001A252F823F000BFE90200082A
:1002CC001D0300085103000885030008B90300084A
:1002DC00ED030008210400085504000800237B628C
:1002EC000CE097F90730002B02DA786AFFF728FF49
:1002FC00FB795B00FB717B6A01337B627B6A072BAA
:10030C00EFDD00224FF480715F4801F03BFAB6E05C
:10031C0000233B620CE097F90730002B02DA386AB5
:10032C00FFF70EFFFB795B00FB713B6A01333B620D
:10033C003B6A072BEFDD00224FF40071524801F0AD
:10034C0021FA9CE00023FB610CE097F90730002BAD
:10035C0002DAF869FFF7F4FEFB795B00FB71FB69CD
:10036C000133FB61FB69072BEFDD00224FF4806149
:10037C00454801F007FA82E00023BB610CE097F9D5
:10038C000730002B02DAB869FFF7DAFEFB795B0065
:10039C00FB71BB690133BB61BB69072BEFDD00222D
:1003AC004FF40061384801F0EDF968E000237B61FF
:1003BC000CE097F90730002B02DA7869FFF7C0FEE2
:1003CC00FB795B00FB717B6901337B617B69072BDC
:1003DC00EFDD00224FF480512B4801F0D3F94EE0B1
:1003EC0000233B610CE097F90730002B02DA3869E7
:1003FC00FFF7A6FEFB795B00FB713B6901333B61A8
:10040C003B69072BEFDD00224FF400511E4801F031
:10041C00B9F934E00023FB600CE097F90730002BAE
:10042C0002DAF868FFF78CFEFB795B00FB71FB6866
:10043C000133FB60FB68072BEFDD00224FF480419A
:10044C00114801F09FF91AE00023BB600CE097F90A
:10045C000730002B02DAB868FFF772FEFB795B00FD
:10046C00FB71BB680133BB60BB68072BEFDD00225F
:10047C004FF40041044801F085F900E000BF00BFD3
:10048C002837BD4680BD00BF000C014080B483B04E
:10049C0000AF78601D4A7B6812F833201C4B1A7031
:1004AC001A4A7B68DB0013445A78194B5A70174A66
:1004BC007B68DB0013449A78154B9A70134A7B685F
:1004CC00DB001344DA78124BDA70104A7B68DB00DD
:1004DC0013441A790E4B1A710C4A7B68DB001344D7
:1004EC005A790B4B5A71094A7B68DB0013449A7991
:1004FC00074B9A71054A7B68DB001344DA79044B8D
:10050C00DA7100BF0C37BD4680BC70470800002074
:10051C000000002080B582B000AF78607B68072BAC
:10052C004AD801A252F823F05505000863050008CB
:10053C00710500087F0500088D0500089B05000863
:10054C00A9050008B70500081E4B1B7879681846EA
:10055C00FFF7A6FE31E01B4B5B7879681846FFF776
:10056C009FFE2AE0174B9B7879681846FFF798FE98
:10057C0023E0144BDB7879681846FFF791FE1CE0FA
:10058C00104B1B7979681846FFF78AFE15E00D4B66
:10059C005B7979681846FFF783FE0EE0094B9B796F
:1005AC0079681846FFF77CFE07E0064BDB79796823
:1005BC001846FFF775FE00E000BF00BF0837BD46C8
:1005CC0080BD00BF0000002080B58AB000AF03469C
:1005DC003960FB713B68072B00F2E48001A252F8F2
:1005EC0023F000BF11060008450600087906000834
:1005FC00AD060008E10600081507000849070008C9
:10060C007D07000801224FF48071694801F0BAF8A7
:10061C0000237B620CE097F90730002B02DA786A32
:10062C00FFF7E6FDFB795B00FB717B6A01337B62B4
:10063C007B6A072BEFDDB6E001224FF400715C48BA
:10064C0001F0A0F800233B620CE097F90730002B77
:10065C0002DA386AFFF7CCFDFB795B00FB713B6A71
:10066C0001333B623B6A072BEFDD9CE001224FF428
:10067C0080614F4801F086F80023FB610CE097F98C
:10068C000730002B02DAF869FFF7B2FDFB795B004B
:10069C00FB71FB690133FB61FB69072BEFDD82E02A
:1006AC0001224FF40061424801F06CF80023BB6159
:1006BC000CE097F90730002B02DAB869FFF798FDC8
:1006CC00FB795B00FB71BB690133BB61BB69072B19
:1006DC00EFDD68E001224FF48051354801F052F80B
:1006EC0000237B610CE097F90730002B02DA786964
:1006FC00FFF77EFDFB795B00FB717B6901337B614E
:10070C007B69072BEFDD4EE001224FF400512848A6
:10071C0001F038F800233B610CE097F90730002B0F
:10072C0002DA3869FFF764FDFB795B00FB713B690A
:10073C0001333B613B69072BEFDD34E001224FF4C1
:10074C0080411B4801F01EF80023FB600CE097F978
:10075C000730002B02DAF868FFF74AFDFB795B00E3
:10076C00FB71FB680133FB60FB68072BEFDD1AE0C4
:10077C0001224FF400410E4801F004F80023BB6045
:10078C000CE097F90730002B02DAB868FFF730FD60
:10079C00FB795B00FB71BB680133BB60BB68072B4B
:1007AC00EFDD00E000BF00BF2837BD4680BD00BFB5
:1007BC00000C014080B500AF01224FF480712E482F
:1007CC0000F0E0FF01224FF400712B4800F0DAFF3B
:1007DC0001224FF48061284800F0D4FF01224FF42D
:1007EC000061254800F0CEFF01224FF480512248D1
:1007FC0000F0C8FF01224FF400511F4800F0C2FF67
:10080C0001224FF480411C4800F0BCFF01224FF440
:10081C000041194800F0B6FF01220421174800F0EE
:10082C00B1FF01220821154800F0ACFF01224FF462
:10083C008061124800F0A6FF01224FF400610F48BE
:10084C0000F0A0FF01224FF480510C4800F09AFFF9
:10085C0001224FF40051094800F094FF01224FF49B
:10086C008041064800F08EFF01224FF400410348FE
:10087C0000F088FF00BF80BD000C01400008014063
:10088C0080B483B000AF7860074B1B687A6892FB2A
:10089C00F3F3064A1360064B00221A6000BF0C37B4
:1008AC00BD4680BC704700BF78010020C00100200D
:1008BC00C401002080B400AF114B1B68002B0BDD72
:1008CC000F4B1B68013B0E4A13600D4B1B68002B32
:1008DC0002D10C4B01221A600B4B1B68002B0BDD59
:1008EC00094B1B68013B084A1360074B1B68002B24
:1008FC0002D1064B01221A6000BFBD4680BC704776
:10090C00C0010020C4010020BC010020C80100204F
:10091C0080B582B000AF78607B68092B00F28081D3
:10092C0001A252F823F000BF5D090008A5090008D8
:10093C00ED090008350A00087D0A0008C50A000800
:10094C000D0B0008550B00089D0B0008E50B00086B
:10095C0000220121B44800F015FF00220221B24808
:10096C0000F010FF00220421AF4800F00BFF002222
:10097C000821AD4800F006FF00221021AA4800F023
:10098C0001FF00222021A84800F0FCFE012240219A
:10099C00A54800F0F7FE43E101220121A24800F036
:1009AC00F1FE00220221A04800F0ECFE00220421FE
:1009BC009D4800F0E7FE012208219B4800F0E2FE72
:1009CC0001221021984800F0DDFE012220219648DA
:1009DC0000F0D8FE01224021934800F0D3FE1FE125
:1009EC0000220121904800F0CDFE002202218E4809
:1009FC0000F0C8FE012204218B4800F0C3FE002247
:100A0C000821894800F0BEFE00221021864800F023
:100A1C00B9FE01222021844800F0B4FE00224021BE
:100A2C00814800F0AFFEFBE0002201217E4800F07F
:100A3C00A9FE002202217C4800F0A4FE0022042121
:100A4C00794800F09FFE00220821774800F09AFEBA
:100A5C0001221021744800F095FE012220217248D9
:100A6C0000F090FE002240216F4800F08BFED7E092
:100A7C00012201216C4800F085FE002202216A4807
:100A8C0000F080FE00220421674800F07BFE01226A
:100A9C000821654800F076FE01221021624800F022
:100AAC0071FE00222021604800F06CFE00224021E3
:100ABC005D4800F067FEB3E0002201215A4800F0C7
:100ACC0061FE01220221584800F05CFE0022042144
:100ADC00554800F057FE00220821534800F052FE02
:100AEC0001221021504800F04DFE002220214E48DA
:100AFC0000F048FE002240214B4800F043FE8FE0FE
:100B0C0000220121484800F03DFE01220221464806
:100B1C0000F038FE00220421434800F033FE00228E
:100B2C000821414800F02EFE002210213E4800F022
:100B3C0029FE002220213C4800F024FE0022402106
:100B4C00394800F01FFE6BE000220121364800F00E
:100B5C0019FE00220221344800F014FE0022042168
:100B6C00314800F00FFE012208212F4800F00AFE48
:100B7C00012210212C4800F005FE012220212A48D8
:100B8C0000F000FE01224021274800F0FBFD47E069
:100B9C0000220121244800F0F5FD00220221224808
:100BAC0000F0F0FD002204211F4800F0EBFD0022B4
:100BBC0008211D4800F0E6FD002210211A4800F023
:100BCC00E1FD00222021184800F0DCFD002240212C
:100BDC00154800F0D7FD23E000220121124800F057
:100BEC00D1FD00220221104800F0CCFD002204218E
:100BFC000D4800F0C7FD002208210B4800F0C2FD93
:100C0C0001221021084800F0BDFD002220210648D9
:100C1C0000F0B8FD00224021034800F0B3FD00BFF6
:100C2C0000BF0837BD4680BD000C014080B483B0C6
:100C3C0000AF786004227B6893FBF2F3044A1360E4
:100C4C00044B00221A6000BF0C37BD4680BC7047B5
:100C5C00BC010020C801002080B582B000AF7860D4
:100C6C007B68032B7AD801A252F823F0890C000878
:100C7C00C10C0008F90C0008310D000800224021BD
:100C8C00394800F07FFD01228021374800F07AFDC1
:100C9C0001224FF48071344800F074FD01224FF4AE
:100CAC000071314800F06EFD304B1B681846FFF7A1
:100CBC002FFE54E0012240212B4800F063FD00225E
:100CCC008021294800F05EFD01224FF480712648F6
:100CDC0000F058FD01224FF40071234800F052FD42
:100CEC00224B5B681846FFF713FE38E001224021C7
:100CFC001D4800F047FD012280211B4800F042FDF9
:100D0C0000224FF48071184800F03CFD01224FF492
:100D1C000071154800F036FD144B9B681846FFF720
:100D2C00F7FD1CE0012240210F4800F02BFD0122B1
:100D3C0080210D4800F026FD01224FF480710A48F5
:100D4C0000F020FD00224FF40071074800F01AFD5E
:100D5C00064BDB681846FFF7DBFD00E000BF00BF69
:100D6C000837BD4680BD00BF000801407C01002053
:100D7C0080B582B000AF00F01BFA00F077F800F0FD
:100D8C00FDF800F0AFF8314801F066F90220FFF7EA
:100D9C0077FDC820FFF74AFF01237B607B68012B9E
:100DAC0003D1FFF707FD00237B60294B1B68184616
:100DBC00FFF7B0FB274B1B68012B27D1244B1B687B
:100DCC00254AD35C224A126811461846FFF7FCFBF1
:100DDC001F4B1B6801331E4A13601D4B1B68082BED
:100DEC0011DD1B4B00221A601C4B1B685A1C1B4943
:100DFC000A601846FFF74AFB184B1B682D2B02DDC7
:100E0C00164B01221A600220FFF73AFD144B1B68A7
:100E1C00012BC3D12021134800F0CCFC1021114828
:100E2C0000F0C8FC104B1B685A1C0F490A6018468E
:100E3C00FFF712FF0C4B1B68032B02DD0A4B002241
:100E4C001A60C820FFF7F2FEA8E700BFD00100200F
:100E5C00B4010020C401002000000020B8010020D3
:100E6C00C801002000080140CC01002080B590B0E2
:100E7C0000AF07F1180328220021184601F0A4FC4A
:100E8C003B1D00221A605A609A60DA601A610223D4
:100E9C00BB610123BB621023FB6200237B6307F160
:100EAC001803184600F0A0FC0346002B01D000F0FC
:100EBC00C5F80F237B600023BB600023FB6000237D
:100ECC003B6100237B613B1D0021184600F00CFFA9
:100EDC000346002B01D000F0B1F800BF4037BD46EF
:100EEC0080BD000080B586B000AF07F1080300227A
:100EFC001A605A609A60DA603B4600221A605A60A7
:100F0C001D4B4FF080421A601B4B41F63F725A60EA
:100F1C00194B00229A60184B0122DA60164B002202
:100F2C001A61154B00229A61134801F045F80346EB
:100F3C00002B01D000F082F84FF48053BB6007F116
:100F4C00080319460C4801F0DBF90346002B01D0CD
:100F5C0000F074F800233B6000237B603B4619468D
:100F6C00054801F0A3FB0346002B01D000F066F806
:100F7C0000BF1837BD4680BDD001002080B586B0BB
:100F8C0000AF07F1080300221A605A609A60DA6019
:100F9C00224B9B69214A43F0040393611F4B9B69CD
:100FAC0003F004037B607B681C4B9B691B4A43F07A
:100FBC0008039361194B9B6903F008033B603B6882
:100FCC0000224FF6FC71164800F0DCFB00224FF6B5
:100FDC007F71144800F0D6FB4FF6FC73BB60012305
:100FEC00FB6000233B6102237B6107F10803194678
:100FFC000B4800F04DFA4FF67F73BB600123FB608A
:10100C0000233B6102237B6107F108031946054865
:10101C0000F03EFA00BF1837BD4680BD00100240FC
:10102C0000080140000C014080B582B000AF786030
:10103C00FFF740FC00BF0837BD4680BD80B400AF51
:10104C0072B600BFFEE7000080B485B000AF154B50
:10105C009B69144A43F001039361124B9B6903F0A3
:10106C000103BB60BB680F4BDB690E4A43F0805336
:10107C00D3610C4BDB6903F080537B607B680A4BBC
:10108C005B68FB60FB6823F0E063FB60FB6843F08C
:10109C008063FB60044AFB68536000BF1437BD4695
:1010AC0080BC7047001002400000014080B584B045
:1010BC0000AF78607B681B68B3F1804F13D10C4B89
:1010CC00DB690B4A43F00103D361094BDB6903F085
:1010DC000103FB60FB68002200211C2000F0A1F939
:1010EC001C2000F0BAF900BF1037BD4680BD00BF10
:1010FC000010024080B400AFFEE780B400AFFEE702
:10110C0080B400AFFEE780B400AFFEE780B400AF60
:10111C00FEE780B400AF00BFBD4680BC704780B412
:10112C0000AF00BFBD4680BC704780B400AF00BFAD
:10113C00BD4680BC704780B500AF00F07FF800BFA3
:10114C0080BD000080B500AF024800F0D1FF00BFA9
:10115C0080BD00BFD001002080B400AF00BFBD46F1
:10116C0080BC70470C480D490D4A002302E0D4584E
:10117C00C4500433C4188C42F9D30A4A0A4C0023D5
:10118C0001E013600432A242FBD3FFF7E5FF01F04C
:10119C00F7FAFFF7EDFD70470000002098010020E2
:1011AC0024280008980100201C020020FEE7000003
:1011BC0080B500AF084B1B68074A43F0100313605F
:1011CC00032000F023F90F2000F008F8FFF73CFF94
:1011DC000023184680BD00BF0020024080B582B0BD
:1011EC0000AF7860124B1A68124B1B7819464FF4FB
:1011FC007A73B3FBF1F3B2FBF3F3184600F03BF94F
:10120C000346002B01D001230EE07B680F2B0AD87C
:10121C00002279684FF0FF3000F003F9064A7B6832
:10122C001360002300E0012318460837BD4680BD3B
:10123C008C010020940100209001002080B400AFAC
:10124C00054B1B781A46054B1B681344034A136065
:10125C0000BFBD4680BC70479401002018020020DE
:10126C0080B400AF024B1B681846BD4680BC70476B
:10127C001802002080B485B000AF78607B6803F062
:10128C000703FB600C4BDB68BB60BA684FF6FF03CF
:10129C001340BB60FB681A02BB68134343F0BF6387
:1012AC0043F40033BB60044ABB68D36000BF1437FF
:1012BC00BD4680BC704700BF00ED00E080B400AFBD
:1012CC00044BDB681B0A03F007031846BD4680BCC1
:1012DC00704700BF00ED00E080B483B000AF034660
:1012EC00FB7197F90730002B0BDBFB7903F01F0226
:1012FC00064997F907305B09012000FA02F241F820
:10130C00232000BF0C37BD4680BC704700E100E0D5
:10131C0080B483B000AF03463960FB7197F9073096
:10132C00002B0ADB3B68DAB20C4997F90730120143
:10133C00D2B20B4483F800230AE03B68DAB20849C6
:10134C00FB7903F00F03043B1201D2B20B441A7663
:10135C0000BF0C37BD4680BC704700BF00E100E009
:10136C0000ED00E080B489B000AFF860B9607A603D
:10137C00FB6803F00703FB61FB69C3F10703042B54
:10138C0028BF0423BB61FB690433062B02D9FB691C
:10139C00033B00E000237B614FF0FF32BB6902FA94
:1013AC0003F3DA43BB681A407B699A404FF0FF3174
:1013BC007B6901FA03F3D9437B680B40134318464E
:1013CC002437BD4680BC704780B582B000AF7860D2
:1013DC007B68013BB3F1807F01D301230FE00A4A04
:1013EC007B68013B53600F214FF0FF30FFF790FFFC
:1013FC00054B00229A60044B07221A600023184602
:10140C000837BD4680BD00BF10E000E080B582B05B
:10141C0000AF78607868FFF72DFF00BF0837BD4636
:10142C0080BD80B586B000AF0346B9607A60FB73AF
:10143C0000237B61FFF742FF78617A68B9687869AD
:10144C00FFF790FF024697F90F3011461846FFF749
:10145C005FFF00BF1837BD4680BD80B582B000AFBE
:10146C000346FB7197F907301846FFF735FF00BFAD
:10147C000837BD4680BD80B582B000AF7860786813
:10148C00FFF7A2FF034618460837BD4680BD000093
:10149C0080B48BB000AF7860396000237B6200238E
:1014AC003B6248E101227B6A02FA03F3FB613B6871
:1014BC001B68FA691340BB61BA69FB699A4240F038
:1014CC0037813B685B68A34A93425ED0A14A934242
:1014DC0075D8A14A934258D09F4A93426FD89F4ADD
:1014EC00934252D09D4A934269D89D4A93424CD024
:1014FC009B4A934263D89B4A934246D0994A934263
:10150C005DD8122B2AD8122B59D801A252F823F0ED
:10151C00971500087115000883150008C5150008FB
:10152C00CB150008CB150008CB150008CB1500080F
:10153C00CB150008CB150008CB150008CB150008FF
:10154C00CB150008CB150008CB150008CB150008EF
:10155C00CB150008791500088D150008824A9342B6
:10156C0013D02CE03B68DB683B6229E03B68DB680E
:10157C0004333B6224E03B68DB6808333B621FE0CA
:10158C003B68DB680C333B621AE03B689B68002BC2
:10159C0002D104233B6213E03B689B68012B05D10D
:1015AC0008233B627B68FA691A6109E008233B62F5
:1015BC007B68FA695A6103E000233B6200E000BFDC
:1015CC00BB69FF2B01D87B6801E07B6804337B612E
:1015DC00BB69FF2B02D87B6A9B0002E07B6A083B4D
:1015EC009B003B617B691A680F213B6901FA03F38D
:1015FC00DB431A40396A3B6901FA03F31A437B69EE
:10160C001A603B685B6803F08053002B00F09080FD
:10161C00564B9B69554A43F001039361534B9B69AD
:10162C0003F00103BB60BB68514A7B6A9B08023321
:10163C0052F82330FB607B6A03F003039B000F22FC
:10164C0002FA03F3DB43FA681340FB607B68494AF8
:10165C0093420DD07B68484A934207D07B68474A37
:10166C00934201D1022304E0032302E0012300E0B2
:10167C0000237A6A02F0030292009340FA68134343
:10168C00FB603B497B6A9B080233FA6841F82320D4
:10169C003B685B6803F48033002B06D0384B1A6828
:1016AC003749BB6913430B6006E0354B1A68BB69BD
:1016BC00DB43334913400B603B685B6803F4003336
:1016CC00002B06D02E4B5A682D49BB6913434B6037
:1016DC0006E02B4B5A68BB69DB43294913404B602E
:1016EC003B685B6803F48013002B06D0244B9A688C
:1016FC002349BB6913438B6006E0214B9A68BB6995
:10170C00DB431F4913408B603B685B6803F4001399
:10171C00002B06D01A4BDA681949BB691343CB600E
:10172C0006E0174BDA68BB69DB4315491340CB6005
:10173C007B6A01337B623B681A687B6A22FA03F38B
:10174C00002B7FF4AFAE00BF00BF2C37BD4680BC72
:10175C00704700BF00003210000031100000221052
:10176C0000002110000012100000111000100240A7
:10177C000000014000080140000C01400010014035
:10178C000004014080B483B000AF78600B467B80CE
:10179C0013467B707B78002B03D07A887B681A61A8
:1017AC0003E07B881A047B681A6100BF0C37BD46C6
:1017BC0080BC704780B485B000AF78600B467B80EE
:1017CC007B68DB68FB607A88FB6813401A04FB6853
:1017DC00D9437B880B401A437B681A6100BF1437CE
:1017EC00BD4680BC7047000080B586B000AF786005
:1017FC007B68002B01D101236CE27B681B6803F032
:10180C000103002B00F08780924B5B6803F00C0304
:10181C00042B0CD08F4B5B6803F00C03082B12D1FC
:10182C008C4B5B6803F48033B3F5803F0BD1894B51
:10183C001B6803F40033002B6CD07B685B68002BB7
:10184C0068D1012346E27B685B68B3F5803F06D123
:10185C00804B1B687F4A43F4803313602EE07B6817
:10186C005B68002B0CD17B4B1B687A4A23F48033CA
:10187C001360784B1B68774A23F4802313601DE0B8
:10188C007B685B68B3F5A02F0CD1724B1B68714A57
:10189C0043F4802313606F4B1B686E4A43F4803310
:1018AC0013600BE06B4B1B686A4A23F480331360A4
:1018BC00684B1B68674A23F4802313607B685B6862
:1018CC00002B13D0FFF7CCFC386108E0FFF7C8FC05
:1018DC0002463B69D31A642B01D90323FAE15D4B11
:1018EC001B6803F40033002BF0D014E0FFF7B8FCB6
:1018FC00386108E0FFF7B4FC02463B69D31A642B4D
:10190C0001D90323E6E1534B1B6803F40033002B8E
:10191C00F0D100E000BF7B681B6803F00203002BD2
:10192C0063D04C4B5B6803F00C03002B0BD0494B82
:10193C005B6803F00C03082B1CD1464B5B6803F46B
:10194C008033002B16D1434B1B6803F00203002B92
:10195C0005D07B681B69012B01D00123BAE13D4BFB
:10196C001B6823F0F8027B685B69DB003949134381
:10197C000B603AE07B681B69002B20D0364B0122B0
:10198C001A60FFF76DFC386108E0FFF769FC02464E
:10199C003B69D31A022B01D903239BE12D4B1B6806
:1019AC0003F00203002BF0D02A4B1B6823F0F80243
:1019BC007B685B69DB00274913430B6015E0264B02
:1019CC0000221A60FFF74CFC386108E0FFF748FC76
:1019DC0002463B69D31A022B01D903237AE11D4B32
:1019EC001B6803F00203002BF0D17B681B6803F02B
:1019FC000803002B3AD07B689B69002B19D0174B3E
:101A0C0001221A60FFF72CFC386108E0FFF728FC74
:101A1C0002463B69D31A022B01D903235AE10D4B21
:101A2C005B6A03F00203002BF0D0012000F0A6FA51
:101A3C001CE00A4B00221A60FFF712FC38610FE021
:101A4C00FFF70EFC02463B69D31A022B08D903237D
:101A5C0040E100BF001002400000424280044242BC
:101A6C009E4B5B6A03F00203002BE9D17B681B6879
:101A7C0003F00403002B00F0A6800023FB75974BAA
:101A8C00DB6903F08053002B0DD1944BDB69934A37
:101A9C0043F08053D361914BDB6903F08053BB60FF
:101AAC00BB680123FB758E4B1B6803F48073002B02
:101ABC0018D18B4B1B688A4A43F480731360FFF771
:101ACC00CFFB386108E0FFF7CBFB02463B69D31A2A
:101ADC00642B01D90323FDE0814B1B6803F4807355
:101AEC00002BF0D07B68DB68012B06D17B4B1B6A8B
:101AFC007A4A43F0010313622DE07B68DB68002B0C
:101B0C000CD1764B1B6A754A23F001031362734B9D
:101B1C001B6A724A23F0040313621CE07B68DB68C7
:101B2C00052B0CD16D4B1B6A6C4A43F004031362FA
:101B3C006A4B1B6A694A43F0010313620BE0674B63
:101B4C001B6A664A23F001031362644B1B6A634AE7
:101B5C0023F0040313627B68DB68002B15D0FFF7BE
:101B6C007FFB38610AE0FFF77BFB02463B69D31A27
:101B7C0041F28832934201D90323ABE0574B1B6AE5
:101B8C0003F00203002BEED014E0FFF769FB386181
:101B9C000AE0FFF765FB02463B69D31A41F2883233
:101BAC00934201D9032395E04C4B1B6A03F00203CB
:101BBC00002BEED1FB7D012B05D1484BDB69474A4D
:101BCC0023F08053D3617B68DB69002B00F08180AC
:101BDC00424B5B6803F00C03082B61D07B68DB691C
:101BEC00022B46D13F4B00221A60FFF739FB3861BC
:101BFC0008E0FFF735FB02463B69D31A022B01D9EB
:101C0C00032367E0354B1B6803F00073002BF0D106
:101C1C007B681B6AB3F5803F08D1304B5B6823F4BB
:101C2C0000327B689B682D4913434B602B4B5B68E0
:101C3C0023F474127B68196A7B685B6A0B4327492F
:101C4C0013434B60274B01221A60FFF709FB3861E5
:101C5C0008E0FFF705FB02463B69D31A022B01D9BA
:101C6C00032337E01D4B1B6803F00073002BF0D0EF
:101C7C002FE01C4B00221A60FFF7F2FA386108E0E3
:101C8C00FFF7EEFA02463B69D31A022B01D9032364
:101C9C0020E0124B1B6803F00073002BF0D118E00E
:101CAC007B68DB69012B01D1012313E00B4B5B68D3
:101CBC00FB60FB6803F480327B681B6A9A4206D196
:101CCC00FB6803F470127B685B6A9A4201D00123B3
:101CDC0000E0002318461837BD4680BD00100240B6
:101CEC00007000406000424280B584B000AF786064
:101CFC0039607B68002B01D10123D0E06A4B1B6853
:101D0C0003F007033A689A4210D9674B1B6823F01B
:101D1C00070265493B6813430B60634B1B6803F078
:101D2C0007033A689A4201D00123B8E07B681B682C
:101D3C0003F00203002B20D07B681B6803F0040324
:101D4C00002B05D0594B5B68584A43F4E063536051
:101D5C007B681B6803F00803002B05D0534B5B68B2
:101D6C00524A43F460535360504B5B6823F0F002CB
:101D7C007B689B684D4913434B607B681B6803F081
:101D8C000103002B40D07B685B68012B07D1474BCC
:101D9C001B6803F40033002B15D101237FE07B6813
:101DAC005B68022B07D1414B1B6803F00073002BBF
:101DBC0009D1012373E03D4B1B6803F00203002B98
:101DCC0001D101236BE0394B5B6823F003027B6884
:101DDC005B68364913434B60FFF742FAF8600AE040
:101DEC00FFF73EFA0246FB68D31A41F2883293425F
:101DFC0001D9032353E02D4B5B6803F00C027B6885
:101E0C005B689B009A42EBD1274B1B6803F00703DE
:101E1C003A689A4210D2244B1B6823F007022249DD
:101E2C003B6813430B60204B1B6803F007033A68B5
:101E3C009A4201D0012332E07B681B6803F0040353
:101E4C00002B08D0194B5B6823F4E0627B68DB68DD
:101E5C00164913434B607B681B6803F00803002B87
:101E6C0009D0124B5B6823F460527B681B69DB0062
:101E7C000E4913434B6000F021F802460B4B5B6894
:101E8C001B0903F00F030A49CB5C22FA03F3094A3E
:101E9C001360094B1B681846FFF7A0F9002318467E
:101EAC001037BD4680BD00BF00200240001002402C
:101EBC000C2800088C0100209001002090B48AB0FE
:101ECC0000AF2A4B3C1D0FCB84E80F0040F20123DE
:101EDC003B800023FB610023BB6100237B6200235A
:101EEC007B6100233B62224B5B68FB61FB6903F067
:101EFC000C03042B02D0082B03D02DE01D4B3B62AE
:101F0C002DE0FB699B0C03F00F0307F1280213442F
:101F1C0013F8243C7B61FB6903F48033002B13D052
:101F2C00134B5B685B0C03F0010307F128021344AD
:101F3C0013F8283CBB617B690E4A02FB03F2BB69B8
:101F4C00B2FBF3F37B6204E07B690B4A02FB03F305
:101F5C007B627B6A3B6202E0064B3B6200BF3B6AE2
:101F6C0018462837BD4690BC704700BFFC270008B8
:101F7C000010024000127A0000093D0080B485B0C8
:101F8C0000AF78600A4B1B680A4AA2FB03235B0A6A
:101F9C007A6802FB03F3FB6000BFFB685A1EFA6011
:101FAC00002BF9D100BF00BF1437BD4680BC704771
:101FBC008C010020D34D621080B582B000AF7860E8
:101FCC007B68002B01D1012341E07B6893F83D3005
:101FDC00DBB2002B06D17B68002283F83C207868AA
:101FEC00FFF764F87B68022283F83D207B681A684F
:101FFC007B6804331946104600F06AFA7B680122AC
:10200C0083F846207B68012283F83E207B680122FE
:10201C0083F83F207B68012283F840207B680122F3
:10202C0083F841207B68012283F842207B680122DF
:10203C0083F843207B68012283F844207B680122CB
:10204C0083F845207B68012283F83D200023184645
:10205C000837BD4680BD000080B485B000AF786005
:10206C007B6893F83D30DBB2012B01D0012335E0C6
:10207C007B68022283F83D207B681B68DA687B68EA
:10208C001B6842F00102DA607B681B68164A9342B7
:10209C0009D07B681B68B3F1804F04D07B681B6848
:1020AC00124A934211D17B681B689B6803F00703AB
:1020BC00FB60FB68062B10D07B681B681A687B687A
:1020CC001B6842F001021A6007E07B681B681A6803
:1020DC007B681B6842F001021A6000231846143713
:1020EC00BD4680BC704700BF002C0140000400407E
:1020FC0080B582B000AF78607B681B681B6903F009
:10210C000203022B22D17B681B68DB6803F00203FD
:10211C00022B1BD17B681B686FF002021A617B6873
:10212C0001221A777B681B689B6903F00303002B61
:10213C0003D0786800F0B1F905E0786800F0A4F9F4
:10214C00786800F0B3F97B6800221A777B681B680B
:10215C001B6903F00403042B22D17B681B68DB682A
:10216C0003F00403042B1BD17B681B686FF0040283
:10217C001A617B6802221A777B681B689B6903F4DF
:10218C004073002B03D0786800F087F905E078687D
:10219C0000F07AF9786800F089F97B6800221A77E8
:1021AC007B681B681B6903F00803082B22D17B6832
:1021BC001B68DB6803F00803082B1BD17B681B68CA
:1021CC006FF008021A617B6804221A777B681B681F
:1021DC00DB6903F00303002B03D0786800F05DF992
:1021EC0005E0786800F050F9786800F05FF97B68DA
:1021FC0000221A777B681B681B6903F01003102BF5
:10220C0022D17B681B68DB6803F01003102B1BD1F9
:10221C007B681B686FF010021A617B6808221A77C2
:10222C007B681B68DB6903F44073002B03D0786870
:10223C0000F033F905E0786800F026F9786800F0D2
:10224C0035F97B6800221A777B681B681B6903F0E1
:10225C000103012B0ED17B681B68DB6803F00103C3
:10226C00012B07D17B681B686FF001021A6178683B
:10227C00FEF7DAFE7B681B681B6903F08003802B7A
:10228C000ED17B681B68DB6803F08003802B07D1C1
:10229C007B681B686FF080021A61786800F067FA3F
:1022AC007B681B681B6903F04003402B0ED17B68D5
:1022BC001B68DB6803F04003402B07D17B681B686D
:1022CC006FF040021A61786800F0F9F87B681B68BF
:1022DC001B6903F02003202B0ED17B681B68DB6885
:1022EC0003F02003202B07D17B681B686FF02002C2
:1022FC001A61786800F032FA00BF0837BD4680BD1D
:10230C0080B584B000AF786039607B6893F83C305E
:10231C00012B01D10223B3E07B68012283F83C201E
:10232C007B68022283F83D207B681B689B68FB60FE
:10233C00FB6823F07703FB60FB6823F47F43FB60AF
:10234C007B681B68FA689A603B681B68B3F5005F92
:10235C003ED0B3F5005F00F28780B3F5805F00F0EC
:10236C008580B3F5805F7FD8702B1AD0702B7BD80B
:10237C00602B50D0602B77D8502B3CD0502B73D87F
:10238C00402B58D0402B6FD8302B64D0302B6BD8CF
:10239C00202B60D0202B67D8002B5CD0102B5AD070
:1023AC0062E07B6818683B6899683B685A683B68D0
:1023BC00DB6800F05CF97B681B689B68FB60FB6862
:1023CC0043F07703FB607B681B68FA689A604EE009
:1023DC007B6818683B6899683B685A683B68DB689F
:1023EC0000F045F97B681B689A687B681B6842F4AF
:1023FC0080429A603BE07B6818683B6859683B6890
:10240C00DB681A4600F0BCF87B681B685021184644
:10241C0000F013F92BE07B6818683B6859683B683F
:10242C00DB681A4600F0DAF87B681B6860211846F6
:10243C0000F003F91BE07B6818683B6859683B683F
:10244C00DB681A4600F09CF87B681B684021184634
:10245C0000F0F3F80BE07B681A683B681B681946C0
:10246C00104600F0EAF802E000BF00E000BF7B6815
:10247C00012283F83D207B68002283F83C20002356
:10248C0018461037BD4680BD80B483B000AF78606D
:10249C0000BF0C37BD4680BC704780B483B000AF22
:1024AC00786000BF0C37BD4680BC704780B483B0E9
:1024BC0000AF786000BF0C37BD4680BC704780B45D
:1024CC0083B000AF786000BF0C37BD4680BC70474E
:1024DC0080B485B000AF786039607B681B68FB60A6
:1024EC007B68254A934207D07B68B3F1804F03D0B9
:1024FC007B68224A934208D1FB6823F07003FB608F
:10250C003B685B68FA681343FB607B681A4A93422A
:10251C0007D07B68B3F1804F03D07B68174A934296
:10252C0008D1FB6823F44073FB603B68DB68FA68F6
:10253C001343FB60FB6823F080023B685B69134329
:10254C00FB607B68FA681A603B689A687B68DA62A1
:10255C003B681A687B689A627B68074A934203D18E
:10256C003B681A697B681A637B6801225A6100BF59
:10257C001437BD4680BC7047002C0140000400405D
:10258C0080B487B000AFF860B9607A60FB681B6AF2
:10259C007B61FB681B6A23F00102FB681A62FB6813
:1025AC009B693B613B6923F0F0033B617B681B013A
:1025BC003A6913433B617B6923F00A037B617A69B7
:1025CC00BB6813437B61FB683A699A61FB687A6963
:1025DC001A6200BF1C37BD4680BC704780B487B000
:1025EC0000AFF860B9607A60FB681B6A23F01002D8
:1025FC00FB681A62FB689B697B61FB681B6A3B6129
:10260C007B6923F470437B617B681B037A691343FA
:10261C007B613B6923F0A0033B61BB681B013A69FA
:10262C0013433B61FB687A699A61FB683A691A62E9
:10263C0000BF1C37BD4680BC704780B485B000AF6E
:10264C00786039607B689B68FB60FB6823F07003E3
:10265C00FB603A68FB68134343F00703FB607B683D
:10266C00FA689A6000BF1437BD4680BC704780B4CE
:10267C0087B000AFF860B9607A603B60FB689B681C
:10268C007B617B6923F47F437B613B681A027B6827
:10269C001A43BB6813437A6913437B61FB687A69FD
:1026AC009A6000BF1C37BD4680BC704780B485B0B3
:1026BC0000AF786039607B6893F83C30012B01D116
:1026CC00022341E07B68012283F83C207B680222D4
:1026DC0083F83D207B681B685B68FB607B681B682C
:1026EC009B68BB60FB6823F07003FB603B681B6856
:1026FC00FA681343FB607B681B68FA685A607B6856
:10270C001B68144A934209D07B681B68B3F1804F55
:10271C0004D07B681B68104A93420CD1BB6823F031
:10272C008003BB603B685B68BA681343BB607B6823
:10273C001B68BA689A607B68012283F83D207B682D
:10274C00002283F83C20002318461437BD4680BC79
:10275C00704700BF002C01400004004080B483B0DF
:10276C0000AF786000BF0C37BD4680BC704780B4AA
:10277C0083B000AF786000BF0C37BD4680BC70479B
:10278C0070B500260C4D0D4C641BA410A64209D14B
:10279C0000F022F800260A4D0A4C641BA410A64235
:1027AC0005D170BD55F8043B98470136EEE755F856
:1027BC00043B98470136F2E71C2800081C28000847
:1027CC001C2800082028000803460244934200D12C
:1027DC00704703F8011BF9E7F8B500BFF8BC08BC5B
:1027EC009E467047F8B500BFF8BC08BC9E467047C3
:1027FC0002030405060708090A0B0C0D0E0F101036
:10280C000000000000000000010203040607080994
:04281C00310100087E
:042820000D0100089E
:102824000101010101010101010101010101010194
:102834000202020302020202040404070404040460
:102844000808080F080808081010101F10101010AE
:102854002121213F212121214242427E4242424202
:10286400848484FC84848484080808F8080808089C
:10287400101010F010101010202020E02020202034
:10288400404040C0404040408181818181818181BC
:1028940003020202030202020704040407040404FC
:1028A4000F0808080F0808081E1111111E10101037
:1028B4003C2222223C20202078444444784040405A
:1028C400F0888888F0808080E0101010E00000001C
:1028D400C0202020C000000001818181010101008D
:1028E40001010101010101000302020302020300CC
:1028F40007040407040407000F08080F08080F0062
:102904001E11111E11111E003C22223C22223C00E9
:102914007844447844447800F08888F08888F0004B
:10292400E01010E01010E000C02020C02020C00003
:10293400804040804040800001818101818101010B
:10294400030202020202020307040404040404074B
:102954000F0808080808080F1E1110101010111E87
:102964003C2221212121223C7844424242424478A3
:10297400F0888484848488F0E0100808080810E053
:10298400C0201010101020C0804020202020408043
:102994000080404040408000010000000100000031
:1029A4000900000000000000050000000024F400FD
:0829B40010000000010000000A
:04000005080011716D
:00000001FF
